{
  "_format": "hh-sol-artifact-1",
  "contractName": "TokenFaucet",
  "sourceName": "contracts/TokenFaucet.sol",
  "abi": [
    {
      "inputs": [
        {
          "internalType": "address",
          "name": "tokenAddress",
          "type": "address"
        }
      ],
      "stateMutability": "nonpayable",
      "type": "constructor"
    },
    {
      "anonymous": false,
      "inputs": [
        {
          "indexed": false,
          "internalType": "bool",
          "name": "paused",
          "type": "bool"
        }
      ],
      "name": "FaucetPaused",
      "type": "event"
    },
    {
      "anonymous": false,
      "inputs": [
        {
          "indexed": true,
          "internalType": "address",
          "name": "user",
          "type": "address"
        },
        {
          "indexed": false,
          "internalType": "uint256",
          "name": "amount",
          "type": "uint256"
        },
        {
          "indexed": false,
          "internalType": "uint256",
          "name": "timestamp",
          "type": "uint256"
        }
      ],
      "name": "TokensClaimed",
      "type": "event"
    },
    {
      "inputs": [],
      "name": "COOLDOWN_TIME",
      "outputs": [
        {
          "internalType": "uint256",
          "name": "",
          "type": "uint256"
        }
      ],
      "stateMutability": "view",
      "type": "function"
    },
    {
      "inputs": [],
      "name": "FAUCET_AMOUNT",
      "outputs": [
        {
          "internalType": "uint256",
          "name": "",
          "type": "uint256"
        }
      ],
      "stateMutability": "view",
      "type": "function"
    },
    {
      "inputs": [],
      "name": "MAX_CLAIM_AMOUNT",
      "outputs": [
        {
          "internalType": "uint256",
          "name": "",
          "type": "uint256"
        }
      ],
      "stateMutability": "view",
      "type": "function"
    },
    {
      "inputs": [],
      "name": "admin",
      "outputs": [
        {
          "internalType": "address",
          "name": "",
          "type": "address"
        }
      ],
      "stateMutability": "view",
      "type": "function"
    },
    {
      "inputs": [
        {
          "internalType": "address",
          "name": "user",
          "type": "address"
        }
      ],
      "name": "canClaim",
      "outputs": [
        {
          "internalType": "bool",
          "name": "",
          "type": "bool"
        }
      ],
      "stateMutability": "view",
      "type": "function"
    },
    {
      "inputs": [],
      "name": "isPaused",
      "outputs": [
        {
          "internalType": "bool",
          "name": "",
          "type": "bool"
        }
      ],
      "stateMutability": "view",
      "type": "function"
    },
    {
      "inputs": [
        {
          "internalType": "address",
          "name": "",
          "type": "address"
        }
      ],
      "name": "lastClaimAt",
      "outputs": [
        {
          "internalType": "uint256",
          "name": "",
          "type": "uint256"
        }
      ],
      "stateMutability": "view",
      "type": "function"
    },
    {
      "inputs": [
        {
          "internalType": "address",
          "name": "user",
          "type": "address"
        }
      ],
      "name": "remainingAllowance",
      "outputs": [
        {
          "internalType": "uint256",
          "name": "",
          "type": "uint256"
        }
      ],
      "stateMutability": "view",
      "type": "function"
    },
    {
      "inputs": [],
      "name": "requestTokens",
      "outputs": [],
      "stateMutability": "nonpayable",
      "type": "function"
    },
    {
      "inputs": [
        {
          "internalType": "bool",
          "name": "_paused",
          "type": "bool"
        }
      ],
      "name": "setPaused",
      "outputs": [],
      "stateMutability": "nonpayable",
      "type": "function"
    },
    {
      "inputs": [],
      "name": "token",
      "outputs": [
        {
          "internalType": "contract MyToken",
          "name": "",
          "type": "address"
        }
      ],
      "stateMutability": "view",
      "type": "function"
    },
    {
      "inputs": [
        {
          "internalType": "address",
          "name": "",
          "type": "address"
        }
      ],
      "name": "totalClaimed",
      "outputs": [
        {
          "internalType": "uint256",
          "name": "",
          "type": "uint256"
        }
      ],
      "stateMutability": "view",
      "type": "function"
    }
  ],
  "bytecode": "0x6080604052348015600f57600080fd5b506040516106b83803806106b8833981016040819052602c916069565b600080546001600160a01b0319166001600160a01b0392909216919091179055600180546001600160a81b0319163360ff60a01b19161790556097565b600060208284031215607a57600080fd5b81516001600160a01b0381168114609057600080fd5b9392505050565b610612806100a66000396000f3fe608060405234801561001057600080fd5b50600436106100b45760003560e01c8063bf3506c111610071578063bf3506c114610141578063e362b4f714610154578063ef5d9ae814610164578063f357df6d14610184578063f851a44014610197578063fc0c546a146101c257600080fd5b806303822d3b146100b957806316c38b3c146100ec578063359cf2b71461010157806376697640146101095780637d26324514610119578063b187bd2614610123575b600080fd5b6100d96100c736600461054e565b60026020526000908152604090205481565b6040519081526020015b60405180910390f35b6100ff6100fa36600461057e565b6101d5565b005b6100ff610286565b6100d968056bc75e2d6310000081565b6100d96201518081565b600154600160a01b900460ff165b60405190151581526020016100e3565b61013161014f36600461054e565b610461565b6100d9683635c9adc5dea0000081565b6100d961017236600461054e565b60036020526000908152604090205481565b6100d961019236600461054e565b6104ec565b6001546101aa906001600160a01b031681565b6040516001600160a01b0390911681526020016100e3565b6000546101aa906001600160a01b031681565b6001546001600160a01b0316331461022b5760405162461bcd60e51b81526020600482015260146024820152734f6e6c792061646d696e2063616e20706175736560601b60448201526064015b60405180910390fd5b6001805460ff60a01b1916600160a01b8315158102919091179182905560405160ff9190920416151581527f50cfd8deb0b293676ae69355a9eed053a00f81d3bd6a0ae4dc082629e6476f7f9060200160405180910390a150565b600154600160a01b900460ff16156102d35760405162461bcd60e51b815260206004820152601060248201526f11985d58d95d081a5cc81c185d5cd95960821b6044820152606401610222565b6102dc33610461565b61031b5760405162461bcd60e51b815260206004820152601060248201526f43616e6e6f7420636c61696d206e6f7760801b6044820152606401610222565b6000610326336104ec565b905068056bc75e2d631000008110156103755760405162461bcd60e51b815260206004820152601160248201527045786365656473206d617820636c61696d60781b6044820152606401610222565b33600090815260026020908152604080832042905560039091528120805468056bc75e2d6310000092906103aa9084906105b6565b90915550506000546040516340c10f1960e01b815233600482015268056bc75e2d6310000060248201526001600160a01b03909116906340c10f1990604401600060405180830381600087803b15801561040357600080fd5b505af1158015610417573d6000803e3d6000fd5b50506040805168056bc75e2d6310000081524260208201523393507f9923b4306c6c030f2bdfbf156517d5983b87e15b96176da122cd4f2effa4ba7b92500160405180910390a250565b600154600090600160a01b900460ff161561047e57506000919050565b6001600160a01b0382166000908152600260205260409020546104a59062015180906105b6565b4210156104b457506000919050565b6001600160a01b038216600090815260036020526040902054683635c9adc5dea00000116104e457506000919050565b506001919050565b6001600160a01b038116600090815260036020526040812054683635c9adc5dea000001161051c57506000919050565b6001600160a01b03821660009081526003602052604090205461054890683635c9adc5dea000006105c9565b92915050565b60006020828403121561056057600080fd5b81356001600160a01b038116811461057757600080fd5b9392505050565b60006020828403121561059057600080fd5b8135801515811461057757600080fd5b634e487b7160e01b600052601160045260246000fd5b80820180821115610548576105486105a0565b81810381811115610548576105486105a056fea2646970667358221220360d137e17329022d73e0d83448913ce8832d11d4df6d4b88941d4e69752030064736f6c634300081c0033",
  "linkReferences": {},
  "deployedLinkReferences": {}
}