{
  "_format": "hh-sol-artifact-1",
  "contractName": "MyToken",
  "sourceName": "contracts/Token.sol",
  "abi": [
    {
      "inputs": [
        {
          "internalType": "address",
          "name": "faucet",
          "type": "address"
        }
      ],
      "stateMutability": "nonpayable",
      "type": "constructor"
    },
    {
      "inputs": [],
      "name": "AccessControlBadConfirmation",
      "type": "error"
    },
    {
      "inputs": [
        {
          "internalType": "address",
          "name": "account",
          "type": "address"
        },
        {
          "internalType": "bytes32",
          "name": "neededRole",
          "type": "bytes32"
        }
      ],
      "name": "AccessControlUnauthorizedAccount",
      "type": "error"
    },
    {
      "inputs": [
        {
          "internalType": "address",
          "name": "spender",
          "type": "address"
        },
        {
          "internalType": "uint256",
          "name": "allowance",
          "type": "uint256"
        },
        {
          "internalType": "uint256",
          "name": "needed",
          "type": "uint256"
        }
      ],
      "name": "ERC20InsufficientAllowance",
      "type": "error"
    },
    {
      "inputs": [
        {
          "internalType": "address",
          "name": "sender",
          "type": "address"
        },
        {
          "internalType": "uint256",
          "name": "balance",
          "type": "uint256"
        },
        {
          "internalType": "uint256",
          "name": "needed",
          "type": "uint256"
        }
      ],
      "name": "ERC20InsufficientBalance",
      "type": "error"
    },
    {
      "inputs": [
        {
          "internalType": "address",
          "name": "approver",
          "type": "address"
        }
      ],
      "name": "ERC20InvalidApprover",
      "type": "error"
    },
    {
      "inputs": [
        {
          "internalType": "address",
          "name": "receiver",
          "type": "address"
        }
      ],
      "name": "ERC20InvalidReceiver",
      "type": "error"
    },
    {
      "inputs": [
        {
          "internalType": "address",
          "name": "sender",
          "type": "address"
        }
      ],
      "name": "ERC20InvalidSender",
      "type": "error"
    },
    {
      "inputs": [
        {
          "internalType": "address",
          "name": "spender",
          "type": "address"
        }
      ],
      "name": "ERC20InvalidSpender",
      "type": "error"
    },
    {
      "anonymous": false,
      "inputs": [
        {
          "indexed": true,
          "internalType": "address",
          "name": "owner",
          "type": "address"
        },
        {
          "indexed": true,
          "internalType": "address",
          "name": "spender",
          "type": "address"
        },
        {
          "indexed": false,
          "internalType": "uint256",
          "name": "value",
          "type": "uint256"
        }
      ],
      "name": "Approval",
      "type": "event"
    },
    {
      "anonymous": false,
      "inputs": [
        {
          "indexed": true,
          "internalType": "bytes32",
          "name": "role",
          "type": "bytes32"
        },
        {
          "indexed": true,
          "internalType": "bytes32",
          "name": "previousAdminRole",
          "type": "bytes32"
        },
        {
          "indexed": true,
          "internalType": "bytes32",
          "name": "newAdminRole",
          "type": "bytes32"
        }
      ],
      "name": "RoleAdminChanged",
      "type": "event"
    },
    {
      "anonymous": false,
      "inputs": [
        {
          "indexed": true,
          "internalType": "bytes32",
          "name": "role",
          "type": "bytes32"
        },
        {
          "indexed": true,
          "internalType": "address",
          "name": "account",
          "type": "address"
        },
        {
          "indexed": true,
          "internalType": "address",
          "name": "sender",
          "type": "address"
        }
      ],
      "name": "RoleGranted",
      "type": "event"
    },
    {
      "anonymous": false,
      "inputs": [
        {
          "indexed": true,
          "internalType": "bytes32",
          "name": "role",
          "type": "bytes32"
        },
        {
          "indexed": true,
          "internalType": "address",
          "name": "account",
          "type": "address"
        },
        {
          "indexed": true,
          "internalType": "address",
          "name": "sender",
          "type": "address"
        }
      ],
      "name": "RoleRevoked",
      "type": "event"
    },
    {
      "anonymous": false,
      "inputs": [
        {
          "indexed": true,
          "internalType": "address",
          "name": "from",
          "type": "address"
        },
        {
          "indexed": true,
          "internalType": "address",
          "name": "to",
          "type": "address"
        },
        {
          "indexed": false,
          "internalType": "uint256",
          "name": "value",
          "type": "uint256"
        }
      ],
      "name": "Transfer",
      "type": "event"
    },
    {
      "inputs": [],
      "name": "DEFAULT_ADMIN_ROLE",
      "outputs": [
        {
          "internalType": "bytes32",
          "name": "",
          "type": "bytes32"
        }
      ],
      "stateMutability": "view",
      "type": "function"
    },
    {
      "inputs": [],
      "name": "MAX_SUPPLY",
      "outputs": [
        {
          "internalType": "uint256",
          "name": "",
          "type": "uint256"
        }
      ],
      "stateMutability": "view",
      "type": "function"
    },
    {
      "inputs": [],
      "name": "MINTER_ROLE",
      "outputs": [
        {
          "internalType": "bytes32",
          "name": "",
          "type": "bytes32"
        }
      ],
      "stateMutability": "view",
      "type": "function"
    },
    {
      "inputs": [
        {
          "internalType": "address",
          "name": "owner",
          "type": "address"
        },
        {
          "internalType": "address",
          "name": "spender",
          "type": "address"
        }
      ],
      "name": "allowance",
      "outputs": [
        {
          "internalType": "uint256",
          "name": "",
          "type": "uint256"
        }
      ],
      "stateMutability": "view",
      "type": "function"
    },
    {
      "inputs": [
        {
          "internalType": "address",
          "name": "spender",
          "type": "address"
        },
        {
          "internalType": "uint256",
          "name": "value",
          "type": "uint256"
        }
      ],
      "name": "approve",
      "outputs": [
        {
          "internalType": "bool",
          "name": "",
          "type": "bool"
        }
      ],
      "stateMutability": "nonpayable",
      "type": "function"
    },
    {
      "inputs": [
        {
          "internalType": "address",
          "name": "account",
          "type": "address"
        }
      ],
      "name": "balanceOf",
      "outputs": [
        {
          "internalType": "uint256",
          "name": "",
          "type": "uint256"
        }
      ],
      "stateMutability": "view",
      "type": "function"
    },
    {
      "inputs": [],
      "name": "decimals",
      "outputs": [
        {
          "internalType": "uint8",
          "name": "",
          "type": "uint8"
        }
      ],
      "stateMutability": "view",
      "type": "function"
    },
    {
      "inputs": [
        {
          "internalType": "bytes32",
          "name": "role",
          "type": "bytes32"
        }
      ],
      "name": "getRoleAdmin",
      "outputs": [
        {
          "internalType": "bytes32",
          "name": "",
          "type": "bytes32"
        }
      ],
      "stateMutability": "view",
      "type": "function"
    },
    {
      "inputs": [
        {
          "internalType": "bytes32",
          "name": "role",
          "type": "bytes32"
        },
        {
          "internalType": "address",
          "name": "account",
          "type": "address"
        }
      ],
      "name": "grantRole",
      "outputs": [],
      "stateMutability": "nonpayable",
      "type": "function"
    },
    {
      "inputs": [
        {
          "internalType": "bytes32",
          "name": "role",
          "type": "bytes32"
        },
        {
          "internalType": "address",
          "name": "account",
          "type": "address"
        }
      ],
      "name": "hasRole",
      "outputs": [
        {
          "internalType": "bool",
          "name": "",
          "type": "bool"
        }
      ],
      "stateMutability": "view",
      "type": "function"
    },
    {
      "inputs": [
        {
          "internalType": "address",
          "name": "to",
          "type": "address"
        },
        {
          "internalType": "uint256",
          "name": "amount",
          "type": "uint256"
        }
      ],
      "name": "mint",
      "outputs": [],
      "stateMutability": "nonpayable",
      "type": "function"
    },
    {
      "inputs": [],
      "name": "name",
      "outputs": [
        {
          "internalType": "string",
          "name": "",
          "type": "string"
        }
      ],
      "stateMutability": "view",
      "type": "function"
    },
    {
      "inputs": [
        {
          "internalType": "bytes32",
          "name": "role",
          "type": "bytes32"
        },
        {
          "internalType": "address",
          "name": "callerConfirmation",
          "type": "address"
        }
      ],
      "name": "renounceRole",
      "outputs": [],
      "stateMutability": "nonpayable",
      "type": "function"
    },
    {
      "inputs": [
        {
          "internalType": "bytes32",
          "name": "role",
          "type": "bytes32"
        },
        {
          "internalType": "address",
          "name": "account",
          "type": "address"
        }
      ],
      "name": "revokeRole",
      "outputs": [],
      "stateMutability": "nonpayable",
      "type": "function"
    },
    {
      "inputs": [
        {
          "internalType": "bytes4",
          "name": "interfaceId",
          "type": "bytes4"
        }
      ],
      "name": "supportsInterface",
      "outputs": [
        {
          "internalType": "bool",
          "name": "",
          "type": "bool"
        }
      ],
      "stateMutability": "view",
      "type": "function"
    },
    {
      "inputs": [],
      "name": "symbol",
      "outputs": [
        {
          "internalType": "string",
          "name": "",
          "type": "string"
        }
      ],
      "stateMutability": "view",
      "type": "function"
    },
    {
      "inputs": [],
      "name": "totalSupply",
      "outputs": [
        {
          "internalType": "uint256",
          "name": "",
          "type": "uint256"
        }
      ],
      "stateMutability": "view",
      "type": "function"
    },
    {
      "inputs": [
        {
          "internalType": "address",
          "name": "to",
          "type": "address"
        },
        {
          "internalType": "uint256",
          "name": "value",
          "type": "uint256"
        }
      ],
      "name": "transfer",
      "outputs": [
        {
          "internalType": "bool",
          "name": "",
          "type": "bool"
        }
      ],
      "stateMutability": "nonpayable",
      "type": "function"
    },
    {
      "inputs": [
        {
          "internalType": "address",
          "name": "from",
          "type": "address"
        },
        {
          "internalType": "address",
          "name": "to",
          "type": "address"
        },
        {
          "internalType": "uint256",
          "name": "value",
          "type": "uint256"
        }
      ],
      "name": "transferFrom",
      "outputs": [
        {
          "internalType": "bool",
          "name": "",
          "type": "bool"
        }
      ],
      "stateMutability": "nonpayable",
      "type": "function"
    }
  ],
  "bytecode": "0x608060405234801561001057600080fd5b50604051610f38380380610f3883398101604081905261002f9161017c565b604051806040016040528060098152602001682cb7bab92a37b5b2b760b91b815250604051806040016040528060048152602001632caa25a760e11b815250816003908161007d919061024b565b50600461008a828261024b565b5061009a915060009050336100cc565b506100c57f9f2df0fed2c77648de5860a4cc508cd0818c85b8b8a1ab4ceeef8d981c8956a6826100cc565b5050610309565b60008281526005602090815260408083206001600160a01b038516845290915281205460ff166101725760008381526005602090815260408083206001600160a01b03861684529091529020805460ff1916600117905561012a3390565b6001600160a01b0316826001600160a01b0316847f2f8788117e7eff1d82e926ec794901d17c78024a50270940304540a733656f0d60405160405180910390a4506001610176565b5060005b92915050565b60006020828403121561018e57600080fd5b81516001600160a01b03811681146101a557600080fd5b9392505050565b634e487b7160e01b600052604160045260246000fd5b600181811c908216806101d657607f821691505b6020821081036101f657634e487b7160e01b600052602260045260246000fd5b50919050565b601f82111561024657806000526020600020601f840160051c810160208510156102235750805b601f840160051c820191505b81811015610243576000815560010161022f565b50505b505050565b81516001600160401b03811115610264576102646101ac565b6102788161027284546101c2565b846101fc565b6020601f8211600181146102ac57600083156102945750848201515b600019600385901b1c1916600184901b178455610243565b600084815260208120601f198516915b828110156102dc57878501518255602094850194600190920191016102bc565b50848210156102fa5786840151600019600387901b60f8161c191681555b50505050600190811b01905550565b610c20806103186000396000f3fe608060405234801561001057600080fd5b50600436106101215760003560e01c806336568abe116100ad578063a217fddf11610071578063a217fddf1461025d578063a9059cbb14610265578063d539139314610278578063d547741f1461029f578063dd62ed3e146102b257600080fd5b806336568abe146101f357806340c10f191461020657806370a082311461021957806391d148541461024257806395d89b411461025557600080fd5b806323b872dd116100f457806323b872dd14610188578063248a9ca31461019b5780632f2ff15d146101be578063313ce567146101d357806332cb6b0c146101e257600080fd5b806301ffc9a71461012657806306fdde031461014e578063095ea7b31461016357806318160ddd14610176575b600080fd5b610139610134366004610a03565b6102eb565b60405190151581526020015b60405180910390f35b610156610322565b6040516101459190610a34565b610139610171366004610a9e565b6103b4565b6002545b604051908152602001610145565b610139610196366004610ac8565b6103cc565b61017a6101a9366004610b05565b60009081526005602052604090206001015490565b6101d16101cc366004610b1e565b6103f0565b005b60405160128152602001610145565b61017a69d3c21bcecceda100000081565b6101d1610201366004610b1e565b61041b565b6101d1610214366004610a9e565b610453565b61017a610227366004610b4a565b6001600160a01b031660009081526020819052604090205490565b610139610250366004610b1e565b610535565b610156610560565b61017a600081565b610139610273366004610a9e565b61056f565b61017a7f9f2df0fed2c77648de5860a4cc508cd0818c85b8b8a1ab4ceeef8d981c8956a681565b6101d16102ad366004610b1e565b61057d565b61017a6102c0366004610b65565b6001600160a01b03918216600090815260016020908152604080832093909416825291909152205490565b60006001600160e01b03198216637965db0b60e01b148061031c57506301ffc9a760e01b6001600160e01b03198316145b92915050565b60606003805461033190610b8f565b80601f016020809104026020016040519081016040528092919081815260200182805461035d90610b8f565b80156103aa5780601f1061037f576101008083540402835291602001916103aa565b820191906000526020600020905b81548152906001019060200180831161038d57829003601f168201915b5050505050905090565b6000336103c28185856105a2565b5060019392505050565b6000336103da8582856105af565b6103e5858585610628565b506001949350505050565b60008281526005602052604090206001015461040b81610687565b6104158383610694565b50505050565b6001600160a01b03811633146104445760405163334bd91960e11b815260040160405180910390fd5b61044e8282610728565b505050565b61047d7f9f2df0fed2c77648de5860a4cc508cd0818c85b8b8a1ab4ceeef8d981c8956a633610535565b6104c55760405162461bcd60e51b815260206004820152601460248201527321b0b63632b91034b9903737ba1036b4b73a32b960611b60448201526064015b60405180910390fd5b69d3c21bcecceda1000000816104da60025490565b6104e49190610bc9565b11156105275760405162461bcd60e51b815260206004820152601260248201527145786365656473206d617820737570706c7960701b60448201526064016104bc565b6105318282610795565b5050565b60009182526005602090815260408084206001600160a01b0393909316845291905290205460ff1690565b60606004805461033190610b8f565b6000336103c2818585610628565b60008281526005602052604090206001015461059881610687565b6104158383610728565b61044e83838360016107cb565b6001600160a01b03838116600090815260016020908152604080832093861683529290522054600019811015610415578181101561061957604051637dc7a0d960e11b81526001600160a01b038416600482015260248101829052604481018390526064016104bc565b610415848484840360006107cb565b6001600160a01b03831661065257604051634b637e8f60e11b8152600060048201526024016104bc565b6001600160a01b03821661067c5760405163ec442f0560e01b8152600060048201526024016104bc565b61044e8383836108a0565b61069181336109ca565b50565b60006106a08383610535565b6107205760008381526005602090815260408083206001600160a01b03861684529091529020805460ff191660011790556106d83390565b6001600160a01b0316826001600160a01b0316847f2f8788117e7eff1d82e926ec794901d17c78024a50270940304540a733656f0d60405160405180910390a450600161031c565b50600061031c565b60006107348383610535565b156107205760008381526005602090815260408083206001600160a01b0386168085529252808320805460ff1916905551339286917ff6391f5c32d9c69d2a47ea670b442974b53935d1edc7fd64eb21e047a839171b9190a450600161031c565b6001600160a01b0382166107bf5760405163ec442f0560e01b8152600060048201526024016104bc565b610531600083836108a0565b6001600160a01b0384166107f55760405163e602df0560e01b8152600060048201526024016104bc565b6001600160a01b03831661081f57604051634a1406b160e11b8152600060048201526024016104bc565b6001600160a01b038085166000908152600160209081526040808320938716835292905220829055801561041557826001600160a01b0316846001600160a01b03167f8c5be1e5ebec7d5bd14f71427d1e84f3dd0314c0f7b2291e5b200ac8c7c3b9258460405161089291815260200190565b60405180910390a350505050565b6001600160a01b0383166108cb5780600260008282546108c09190610bc9565b9091555061093d9050565b6001600160a01b0383166000908152602081905260409020548181101561091e5760405163391434e360e21b81526001600160a01b038516600482015260248101829052604481018390526064016104bc565b6001600160a01b03841660009081526020819052604090209082900390555b6001600160a01b03821661095957600280548290039055610978565b6001600160a01b03821660009081526020819052604090208054820190555b816001600160a01b0316836001600160a01b03167fddf252ad1be2c89b69c2b068fc378daa952ba7f163c4a11628f55a4df523b3ef836040516109bd91815260200190565b60405180910390a3505050565b6109d48282610535565b6105315760405163e2517d3f60e01b81526001600160a01b0382166004820152602481018390526044016104bc565b600060208284031215610a1557600080fd5b81356001600160e01b031981168114610a2d57600080fd5b9392505050565b602081526000825180602084015260005b81811015610a625760208186018101516040868401015201610a45565b506000604082850101526040601f19601f83011684010191505092915050565b80356001600160a01b0381168114610a9957600080fd5b919050565b60008060408385031215610ab157600080fd5b610aba83610a82565b946020939093013593505050565b600080600060608486031215610add57600080fd5b610ae684610a82565b9250610af460208501610a82565b929592945050506040919091013590565b600060208284031215610b1757600080fd5b5035919050565b60008060408385031215610b3157600080fd5b82359150610b4160208401610a82565b90509250929050565b600060208284031215610b5c57600080fd5b610a2d82610a82565b60008060408385031215610b7857600080fd5b610b8183610a82565b9150610b4160208401610a82565b600181811c90821680610ba357607f821691505b602082108103610bc357634e487b7160e01b600052602260045260246000fd5b50919050565b8082018082111561031c57634e487b7160e01b600052601160045260246000fdfea2646970667358221220234f8946746efb9c0130634dd5726556e5610d6dd6cdfec98da8b4965be17ea264736f6c634300081c0033",
  "linkReferences": {},
  "deployedLinkReferences": {}
}